:100000000C9469180C946D590C9442590C9417591E
:100010000C94EC580C94C1580C9496580C946B5852
:100020000C9440580C94E5E20C94BDE20C9495E2DB
:100030000C949A180C949A180C949A180C949A1878
:100040000C949A180C94FAD80C949A180C949A1848
:100050000C949A180C949A180C94D1540C94F6574A
:100060000C949A180C946F370C949A180C949A1854
:100070000C949A180C949A180C949A180C949A1838
:100080000C941BDB0C949A180C949A180C949A18E4
:100090000C949A180C949A180C949A180C949A1818
:1000A0000C949A180C949A180C94EEDA0C949A18F2
:1000B0000C949A180C949A180C949A180C94C1DA0F
:1000C0000C949A180C949A180C949A180C949A18E8
:1000D0000C949A180C949A180C949A180C949A18D8
:1000E0000C949A18BE55C155B055B455BA55F8552B
:1000F000C555C955CF55D355D755DD55E155E555AE
:10010000F855EB55EF55F355125717571C5726570F
:100110003057A9573A5742574A5754575E5768576E
:1001200077578157A9578B5795579F57084AD73B01
:100130003BCE016E84BCBFFDC12F3D6C74319ABDB6
:1001400056833DDA3D00C77F11BED9E4BB4C3E91DA
:100150006BAAAABE000000803F05A84CCDB2D44EC9
:10016000B93836A9020C50B9918688083CA6AAAACB
:100170002ABE000000803F000D9429100D94470115
:100180000D94F6020D946A120D941E010D94F20264
:100190000D9426010D942A010D9422010D94420123
:1001A0000D944C010D94FA020D9487014E414E4975
:1001B0004E495459494E46CDCCCC3D0AD7233C1725
:1001C000B7D13877CC2B329595E6241FB14F0A0072
:1001D0000020410000C84200401C4620BCBE4CCA62
:1001E0001B0E5AAEC59D74434F4D4D554E4943416C
:1001F00054494F4E0044525952554E004552524FA9
:10020000525300494E464F004543484F0047322F56
:1002100047332062616420706172616D657465723C
:10022000730A00536C6565702E2E2E00436C696353
:100230006B20746F20726573756D652E2E2E004EC7
:100240006F206D6F76652E00456E642066696C6563
:10025000206C6973740A00426567696E2066696C78
:1002600065206C6973740A00286E6F2066696C657E
:1002700029005344207072696E74696E6720627938
:10028000746520004E6F74205344207072696E7440
:10029000696E670A0043757272656E742066696CD8
:1002A000653A200046696C652064656C6574656418
:1002B0003A0044656C6574696F6E206661696C65AF
:1002C000642C2046696C653A20005072696E742077
:1002D00074696D653A20006F6E2E0A006F66662E97
:1002E0000A00473236204465627567200008020321
:1002F00002FC01F501E7016F66660044454255477F
:100300003A004B494C4C45442E20004D31313320AE
:1003100053006F6B005479277320487970657263BE
:10032000756265204F66662E00544845524D414C1B
:100330005F50524F54454354494F4E004155544F1E
:100340005245504F52545F53445F53544154555398
:1003500000454D455247454E43595F504152534524
:100360005200434153455F4C494748545F4252490C
:100370004748544E45535300544F47474C455F4CF4
:10038000494748545300534F4654574152455F50D4
:100390004F574552004255494C445F5045524345E2
:1003A0004E54004C4556454C494E475F44415441DC
:1003B000005A5F50524F4245004155544F4C4556EC
:1003C000454C005052494E545F4A4F420050524FE4
:1003D0004752455353004155544F5245504F525484
:1003E0005F54454D5000564F4C554D45545249436E
:1003F00000454550524F4D0053455249414C5F58BE
:100400004F4E5F584F4646004649524D5741524560
:100410005F4E414D453A4D61726C696E20312E310F
:100420002E3920284769746875622920534F555228
:1004300043455F434F44455F55524C3A687474706E
:10044000733A2F2F6769746875622E636F6D2F4D35
:1004500061726C696E4669726D776172652F4D616C
:10046000726C696E2050524F544F434F4C5F56454B
:100470005253494F4E3A312E30204D414348494E58
:10048000455F545950453A5479277320487970652F
:1004900072637562652045585452554445525F4316
:1004A0004F554E543A3120555549443A6365646579
:1004B000326132662D343161322D343734382D3982
:1004C0006231322D633535633632663336376666D0
:1004D0000A002F2F20007A5F6D696E3A2000795F45
:1004E0006D696E3A2000785F6D696E3A2000526542
:1004F000706F7274696E6720656E6473746F7020BC
:100500007374617475730A004D31343520533C693E
:100510006E6465783E206F7574206F662072616E20
:1005200067652028302D31290A0020540020520010
:10053000416363656C65726174696F6E3A20500047
:100540003F4A206F7574206F662072616E67652068
:1005500028302E303120746F20302E33290A004F7E
:10056000666673657473206170706C6965640045BC
:1005700072723A20546F6F206661722100546F6F5F
:10058000206661722066726F6D20726566657265A5
:100590006E636520706F696E740A00205A002059DE
:1005A00000580020204D61783A2000205A00205940
:1005B00000580020204D696E3A20004F6E20004FF9
:1005C000666600536F667420656E6473746F707333
:1005D0003A200020466C6F773A200000013637261B
:1005E00003FFFFFF353C3D380EFFFFFF312E303E4D
:1005F00012FFFFFFFF28FF0CFF09FFFFFF1A1C1867
:10060000FFFF2AFF440AFF43206F7574206F6620A6
:1006100072616E67650A00536572766F20003A203A
:100620000020536572766F200020643A0020693AFA
:100630000020703A00496E76616C696420657874B8
:1006400072756465720A0043290A0061626C656410
:1006500020286D696E2074656D702000436F6C6496
:10066000206578747275646573206172652000235B
:10067000646566696E652044454641554C545F4B40
:1006800064200023646566696E65204445464155D3
:100690004C545F4B69200023646566696E65204495
:1006A000454641554C545F4B702000504944204111
:1006B00075746F74756E652066696E6973686564BC
:1006C000212050757420746865206C617374204B10
:1006D000702C204B6920616E64204B6420636F6E28
:1006E0007374616E74732066726F6D2062656C6FD7
:1006F0007720696E746F20436F6E666967757261EB
:1007000074696F6E2E680A00504944204175746FF9
:1007100074756E65206661696C6564212074696D0D
:10072000656F75740A00453120544845524D414C5F
:100730002052554E4157415900546865726D616CA5
:100740002052756E6177617900453120486561748A
:10075000696E67206661696C6564004865617469EB
:100760006E67206661696C6564005049442041757C
:10077000746F74756E65206661696C6564212054C0
:10078000656D706572617475726520746F6F206835
:100790006967680A00204B643A2000204B693A20C0
:1007A00000204B703A20000A20436C617373696328
:1007B00020504944200A002054753A2000204B75EF
:1007C0003A2000206D61783A2000206D696E3A2051
:1007D0000020643A200020626961733A2000504989
:1007E00044204175746F74756E65206661696C652F
:1007F000642120426164206578747275646572209A
:100800006E756D6265720A00504944204175746FBF
:1008100074756E652073746172740A004E6F206384
:10082000617365206C696768740A004F66660A0028
:1008300046616465204865696768742000426564A4
:10084000204C6576656C696E6720004661696C6551
:100850006420746F20656E61626C6520426564205F
:100860004C6576656C696E670A004D65736820702B
:100870006F696E742063616E6E6F742062652072A2
:1008800065736F6C7665640A004D34323120696E91
:10089000636F727265637420706172616D657465F7
:1008A000722075736167650A00454550524F4D20AF
:1008B0004F4B0A003A200050726F6265205A204F59
:1008C0006666736574003F5A206F7574206F6620EA
:1008D00072616E676520282D323020746F203230AF
:1008E000290A0041637469766520457874727564DD
:1008F00065723A2000496E76616C6964206578748F
:1009000072756465720A004D6573682056616C6982
:10091000646174696F6E2053746F707065642E002B
:10092000696E206D6F76655F746F28292066656536
:10093000645F76616C756520666F722058593A0065
:100940004C656176696E672047323600446F6E658C
:10095000205072696D696E67004669786564204C45
:10096000656E677468205072696D652E00557365F9
:10097000722D436F6E74726F6C6C65642050726977
:100980006D65002C2065793D0029202D3E202865CD
:10099000783D002C2073793D0020436F6E6E6563B7
:1009A00074696E672077697468207665727469630C
:1009B000616C206C696E65202873783D002C206581
:1009C000793D0029202D3E202865783D002C20739C
:1009D000793D0020436F6E6E656374696E672077A2
:1009E00069746820686F72697A6F6E74616C206CCC
:1009F000696E65202873783D004C656176696E6785
:100A000020473236003F537065636966696564202C
:100A1000582C5920636F6F7264696E617465206F22
:100A20007574206F6620626F756E64732E0A003FC6
:100A300028522965706561742076616C7565206E39
:100A40006F7420706C61757369626C653B206D75A5
:100A50007374206265206174206C65617374203149
:100A60002E0A003F537065636966696564206E6F86
:100A70007A7A6C652074656D7065726174757265E3
:100A8000206E6F7420706C61757369626C652E0ADC
:100A9000003F5370656369666965642066696C61CF
:100AA0006D656E742073697A65206E6F7420706C4A
:100AB00061757369626C652E0A003F5370656369E6
:100AC00066696564207072696D65206C656E677417
:100AD00068206E6F7420706C61757369626C652E2E
:100AE0000A003F537065636966696564206E6F7ABA
:100AF0007A6C652073697A65206E6F7420706C6102
:100B0000757369626C652E0A003F53706563696690
:100B10006965642052657472616374696F6E204DFB
:100B2000756C7469706C696572206E6F7420706C7E
:100B300061757369626C652E0A003F52657472615B
:100B40006374696F6E204D756C7469706C69657241
:100B5000206D7573742062652073706563696669C2
:100B600065642E0A003F5370656369666965642099
:100B70006C6179657220686569676874206E6F744E
:100B800020706C61757369626C652E0A003F53704A
:100B900065636966696564206265642074656D706B
:100BA00065726174757265206E6F7420706C61750A
:100BB0007369626C65202834302D31343043292E1E
:100BC0000A0047323620636F6D6D616E6420737466
:100BD00061727465642E2057616974696E6720665E
:100BE0006F72206865617465722873292E0A00256A
:100BF00069730025696D20256973002569682025C2
:100C0000696D2025697300256964202569682025A0
:100C1000696D20256973002569792025696420257F
:100C200069682025696D20256973004B494C4C4546
:100C3000442E2000202D20496E76616C6964206569
:100C400078747275646572206E756D6265722021AC
:100C50000A00001C1F11111F0000000619180313C1
:100C60000C00040E1F041C000000000E1315110ED2
:100C700000001C10181705060500040A0A0A0A11CC
:100C8000110E0C12120C00000000001F1511151F90
:100C900000002D2D2D2D2D2D007C4D61726C696E67
:100CA0007C002D2D2D2D2D2D0020312E312E3900A3
:100CB0002020506C616E6E65724275666665724288
:100CC000797465733A20002046726565204D656D24
:100CD0006F72793A2000436F6D70696C65643A20D9
:100CE00041756720203120323031380A00207C20C5
:100CF000417574686F723A20286E6F6E652C20649F
:100D0000656661756C7420636F6E666967290A0099
:100D1000323031382D30372D333100204C6173742F
:100D200020557064617465643A2000312E312E398B
:100D30000A004D61726C696E0020536F66747761B2
:100D400072652052657365740A0020576174636888
:100D5000646F672052657365740A002042726F7772
:100D60006E206F75742052657365740A0020457893
:100D70007465726E616C2052657365740A00506F01
:100D800077657255700A0073746172740A00617538
:100D9000746F25692E67006572726F7220777269B1
:100DA00074696E6720746F2066696C650A00456E11
:100DB0006473746F7073202563202563202563207E
:100DC000256300205A3A0020593A0020583A00651D
:100DD0006E6473746F7073206869743A2000446F96
:100DE0006E6520736176696E672066696C652E0A90
:100DF000004D32390024F4D43050C38E20C2A240BA
:100E000017828B7011127A910D816CD90AA861E159
:100E100008C7586607615143061E4B5D05C145A7CB
:100E2000041A411104093D9803713931034036DB3E
:100E30000265339102D4305402802E1D02632CEEE1
:100E400001752AC501B028A001102781018F2564F2
:100E5000012B244B01E0223401AC211F018D200D18
:100E600001801FFC00841EED00971DDF00B81CD21E
:100E700000E61BC600201BBC00641AB200B219A811
:100E8000000A19A0006A189900D117910040178B29
:100E900000B516840031167E00B31579003A15733B
:100EA00000C7146F0058146A00EE136600881363BD
:100EB0000025135E00C7125B006C12570015125418
:100EC00000C111510070114F0021114B00D6104983
:100ED000008D1047004610440002104200C00F4031
:100EE00000800F3E00420F3C00060F3B00CB0E3847
:100EF00000930E37005C0E3500270E3400F30D32E0
:100F000000C10D3100900D3000600D2E00320D2D0E
:100F100000050D2C00D90C2B00AE0C2900850C29E6
:100F2000005C0C2700350C27000E0C2600E80B2473
:100F300000C40B2400A00B23007D0B23005A0B21BF
:100F400000390B2100180B2000F80A1F00D90A1ED7
:100F500000BB0A1E009D0A1D00800A1D00630A1CBA
:100F600000470A1B002C0A1B00110A1A00F7091A75
:100F700000DD091900C4091900AB0919009209170D
:100F8000007B091800630917004C09160036091682
:100F900000200916000A091500F5081500E00814DC
:100FA00000CC081400B8081400A40814009008131A
:100FB000007D0812006B0813005808120046081242
:100FC0000034081100230811001208110001081153
:100FD00000F0071000E0071000D0071000C0071055
:100FE00000B0070F00A107100091070E0083070F44
:100FF0000074070F0065070E0057070E0049070E23
:10100000003B070D002E070E0020070D0013070DF3
:101010000006070D00F9060C00ED060D00E0060CB9
:1010200000D4060C00C8060C00BC060C00B0060C70
:1010300000A4060B0099060C008D060B0082060B1F
:101040000077060B006C060B0061060A0057060BC2
:10105000004C060A0042060A0038060A002E060A5C
:101060000024060A001A060A001006090007060AEC
:1010700000FD050900F4050900EB050900E205097A
:1010800000D9050900D0050900C7050900BE0509FA
:1010900000B5050800AD050800A50509009C050878
:1010A00000940508008C050800840508007C0508EC
:1010B00000740508006C050700650508005D05075C
:1010C00000560508004E05070047050700400508C3
:1010D0000038050700310507002A0507002305072A
:1010E000001C050600160507000F05070008050689
:1010F0000002050700FB040600F5040700EE0406E5
:1011000000E8040600E2040700DB040600D504063C
:1011100000CF040600C9040600C3040600BD04068F
:1011200000B7040600B1040500AC040600A60406DE
:1011300000A00405009B0406009504050090040629
:10114000008A04050085040500800406007A040571
:101150000075040500700405006B040500660405B5
:1011600000610405005C04050057040500520405F5
:10117000004D04050048040500430405003E040436
:10118000003A04050035040500300404002C040571
:101190000027040400230405001E0404001A0404AC
:1011A0000016040500110404000D040400090405E0
:1011B000000404040000040400FC030400F8030419
:1011C00000F4030400F0030400EC030400E803044B
:1011D00000E4030400E0030400DC030400D803047B
:1011E00000D4030400D0030400CC030400C80303AC
:1011F00000C503030024F404D9201BC40C5C0E9822
:1012000004C4095F0265077101F405F900FB04B32A
:101210000048048700C103690058035500030345D3
:1012200000BE023A008402310053022A002902253E
:101230000004022000E4011C00C8011900AF0117DE
:101240000098011400840113007101100061011065
:101250000051010E0043010D0036010B002B010B64
:101260000020010B00150109000C01090003010811
:1012700000FB000800F3000800EB000700E4000694
:1012800000DE000600D8000600D2000600CC0005F3
:1012900000C7000500C2000500BD000400B900043D
:1012A00000B5000400B1000400AD000400A9000472
:1012B00000A5000300A20003009F0004009B0003A0
:1012C00000980003009500020093000300900003C3
:1012D000008D0002008B00030088000200860002DF
:1012E0000084000300810002007F0002007D0002F4
:1012F000007B000200790002007700010076000206
:10130000007400020072000100710002006F000210
:10131000006D0001006C0002006A0001006900021B
:101320000067000100660001006500010064000222
:10133000006200010061000100600001005F000226
:10134000005D0001005C0001005B0001005A00012B
:10135000005900010058000100570001005600012B
:10136000005500010054000100530000005300012B
:10137000005200010051000100500001004F000127
:10138000004E0000004E0001004D0001004C000125
:10139000004B0000004B0001004A00010049000121
:1013A000004800000048000100470001004600001E
:1013B0000046000100450000004500010044000116
:1013C0000043000000430001004200000042000111
:1013D000004100000041000100400001003F00000A
:1013E000003F0001003E0000003E0001003D000003
:1013F000003D0001003C0000003C0000003C0001FA
:10140000003B0000003B0001003A0000003A0001F0
:1014100000390000003900010038000000380000E9
:1014200000380001003700000037000100360000DE
:1014300000360000003600010035000000350000D5
:1014400000350001003400000034000000340001C9
:1014500000330000003300000033000100320000C0
:1014600000320000003200010031000000310000B5
:1014700000310001003000000030000000300001A9
:10148000002F0000002F0000002F0000002F00019F
:10149000002E0000002E0000002E0001002D000094
:1014A000002D0000002D0000002D0001002C000088
:1014B000002C0000002C0000002C0001002B00007C
:1014C000002B0000002B0000002B0001002A000070
:1014D000002A0000002A0000002A00010029000064
:1014E0000029000000290000002900000029000157
:1014F000002800000028000000280000002800004C
:10150000002800010027000000270000002700003D
:101510000027000000270001002600000026000030
:101520000026000000260000002600010025000023
:101530000025000000250000002500000025000017
:101540000025000100240000002400000024000009
:1015500000240000002400010023000000230000FC
:1015600000230000002300000023000000230000EF
:1015700000230001002200000022000000220000E1
:1015800000220000002200000022000100210000D3
:1015900000210000002100000021000000210000C7
:1015A00000210000002100010020000000200000B8
:1015B00000200000002000000020000000200000AB
:1015C0000020000000200001001F0000001F00009C
:1015D000001F0000001F0000001F0000001F00008F
:1015E000001F0001001E0000001E0000001E000081
:1015F000001E00000039300000332500008719006C
:1016000000B00F0000DB080000BD04000074020001
:10161000003F0100001000AA03F0013A01900222ED
:101620000130031001D00302017004F7001005ED32
:1016300000B005E5005006DD00F006D7009007D1A8
:10164000003008CC00D008C7007009C300100ABEE3
:1016500000B00ABB00500BB700F00BB300900CB009
:1016600000D00DAA00100FA5005010A00090119BF3
:1016700000D0129600B014900090168B0070188560
:1016800000501A8000301C7B00B01E750030216FA6
:1016900000B02369003026640010285F00902A5AA9
:1016A00000702C5500F02E4F0070314800B03245CC
:1016B00000F03341007036390010373700503833AE
:1016C0000090392D00D03A2700B03C1C00503D1747
:1016D00000F03D1100903E0900D03FE5FF4531206C
:1016E0004572723A204D415854454D50004D415875
:1016F00054454D5020747269676765726564004592
:1017000031204572723A204D494E54454D50004D9E
:10171000494E54454D50207472696767657265641F
:10172000004D383420582059205A204500202F00E1
:1017300020403A0025753A25303275002530327543
:101740003A25303275002D2D2D00534400202020E5
:101750002020200020202020005479277320487961
:10176000706572637562652052656164792E005000
:1017700072696E74696E672E2E2E005072696E74D7
:1017800020706175736564000000000001020404AC
:101790000000001C1C0C04040402010000000000F6
:1017A00004081000000000000000210024002700B1
:1017B0002A002D0030003300010100000401070160
:1017C0000A0100002200250028002B002E00310015
:1017D000340002010000050108010B010000200097
:1017E0002300260029002C002F00320000010000F9
:1017F0000301060109010505050507050808080894
:10180000020202020A0A0808040404040101010198
:101810000101010103030303030303030407070793
:101820000C0C0C0C0C0C0C0C020202020606060638
:10183000060606060B0B0B0B0B0B0B0B0102102005
:1018400020080810204010204080020102010804F6
:10185000020101020408102040808040201008048A
:1018600002018004020180402010080402010804E3
:101870000201010204081020408001020408102027
:10188000408000000A0B02090C0D0E08070304013A
:101890000000000000000000000000000000000048
:1018A0000000000000000000000000000000121115
:1018B0001000000000000000000000000000000018
:1018C000000000000000000053746570732F6D6D00
:1018D000004A65726B00416363656C65726174698F
:1018E0006F6E0056656C6F636974790050726F6239
:1018F00065205A204F66667365740050726F62658A
:10190000205A204F666673657400436F6E74726F61
:101910006C0046696C2E204469612E0046696C2E6D
:10192000204469612E004F6666004F6E20004520FE
:10193000696E206D6D3300436F6E74726F6C00437F
:10194000616E6E6F7420656E74657220737562646B
:1019500069723A2000052E2E004D61696E00004527
:101960007874727564656420746F74616C3A2000D9
:10197000256C642E25696D00004C6F6E676573746D
:10198000206A6F622074696D653A200000546F749C
:10199000616C207072696E742074696D653A200004
:1019A000436F6D706C657465643A20005072696EA7
:1019B0007420436F756E743A20004D617820546531
:1019C0006D703A20323735004D696E2054656D7068
:1019D0003A20350054303A20312520626574612068
:1019E00033393530005053553A2047656E6572697A
:1019F000630050726F746F636F6C3A20312E300049
:101A0000426175643A20323530303030004D4B53EE
:101A10002047454E203E3D2076312E330042696CF2
:101A2000696E656172204C6576656C696E6700450C
:101A300078747275646572733A20310068747470DA
:101A40003A2F2F6D61726C696E66772E6F72670028
:101A50005479277320487970657263756265003226
:101A60003031382D30372D333100312E312E3900C1
:101A70004D61726C696E005072696E7465722053AC
:101A80007461747300546865726D6973746F7273F6
:101A900000426F61726420496E666F005072696E19
:101AA00074657220496E666F004D61696E007C3C02
:101AB0003E5E2B3D3F2F5B5D3B2C2A225C00457236
:101AC000726F722077726974696E6720746F204537
:101AD0004550524F4D210A00454550524F4D20640C
:101AE00061746173697A65206572726F722E0A0083
:101AF000290A002062797465733B206372632000B9
:101B000053657474696E67732053746F72656420D3
:101B10002800290A002062797465733B2063726390
:101B200020002073746F7265642073657474696E2D
:101B30006773207265747269657665642028002079
:101B40002863616C63756C6174656429210A0020E7
:101B5000213D2000454550524F4D20435243206DBA
:101B600069736D61746368202D202873746F7265CA
:101B7000642920002053697A653A2000496E646523
:101B8000783A2000204D61726C696E3D56353529DA
:101B90000A0028454550524F4D3D00454550524F93
:101BA0004D2076657273696F6E206D69736D617417
:101BB00063682000496E697469616C697A652045C3
:101BC0004550524F4D00436F6E74726F6C005265FA
:101BD00073746F7265206661696C73616665004C31
:101BE0006F61642073657474696E67730053746FFA
:101BF00072652073657474696E677300496E6974E9
:101C000069616C697A6520454550524F4D00424CE0
:101C1000546F7563680046696C616D656E74004D44
:101C20006F74696F6E0054656D7065726174757262
:101C300065004D61696E004D3330332055312045CC
:101C400025692053256900507265686561742041DB
:101C5000425320636F6E6600507265686561742040
:101C6000504C4120636F6E660050494420417574AA
:101C70006F74756E6500504944204175746F7475BA
:101C80006E65005049442D44005049442D44005095
:101C900049442D49005049442D49005049442D5094
:101CA000005049442D5000200220466163740020FA
:101CB000022046616374002002204D6178002002FA
:101CC000204D6178002002204D6178002002204DD7
:101CD000696E002002204D696E002002204D696E61
:101CE000004F6666004F6E20004175746F74656D1D
:101CF000700046616E2073706565640046616E20F9
:101D00007370656564004E6F7A7A6C65004E6F7A09
:101D10007A6C6500436F6E74726F6C0053746F72EF
:101D2000652073657474696E6773004E6F7A7A6CA0
:101D300065004E6F7A7A6C650046616E207370653F
:101D400065640046616E2073706565640054656D5E
:101D5000706572617475726500526573656E643A80
:101D600020006F6B0020746F6F206C6F6E672065B2
:101D70007874727573696F6E2070726576656E74B3
:101D800065640A0020636F6C6420657874727573F3
:101D9000696F6E2070726576656E7465640A0062A4
:101DA0007573793A2070617573656420666F72206F
:101DB000696E7075740A00627573793A2070617586
:101DC00073656420666F7220757365720A006275B0
:101DD00073793A2070726F63657373696E670A0076
:101DE0004B494C4C45442E20004B494C4C206361E0
:101DF00075736564206279204B494C4C2062757480
:101E0000746F6E2F70696E0A004B494C4C45442E1E
:101E100020004B494C4C20636175736564206279E6
:101E200020746F6F206D75636820696E61637469DB
:101E300076652074696D65202D2063757272656EFC
:101E40007420636F6D6D616E643A20005654726148
:101E500076206D696E005654726176206D696E0051
:101E60005654726176206D696E00566D696E00562B
:101E70006D696E00566D696E00566D617820450083
:101E8000566D6178204500566D6178204500566D8D
:101E90006178205A00566D6178205A00566D61783D
:101EA000205A00566D6178205900566D617820598E
:101EB00000566D6178205900566D617820580056A3
:101EC0006D6178205800566D61782058004D6F7410
:101ED000696F6E00416D6178204500416D61782029
:101EE0004500416D6178205A00416D6178205A00AB
:101EF000416D6178205900416D6178205900416D34
:101F00006178205800416D6178205800412D74722D
:101F10006176656C00412D74726176656C00412DAF
:101F20007265747261637400412D726574726163CD
:101F30007400416363656C00416363656C004D6FC1
:101F400074696F6E004A756E6374696F6E204465C4
:101F500076004A756E6374696F6E20446576004D35
:101F60006F74696F6E004573746570732F6D6D00CB
:101F70004573746570732F6D6D005A73746570735B
:101F80002F6D6D005A73746570732F6D6D005973EA
:101F9000746570732F6D6D005973746570732F6D58
:101FA0006D005873746570732F6D6D005873746590
:101FB00070732F6D6D004D6F74696F6E004E6F20E2
:101FC000436865636B73756D2077697468206C690D
:101FD0006E65206E756D6265722C204C6173742085
:101FE0004C696E653A20004B494C4C45442E20000C
:101FF00053544F505045442E20005072696E746502
:10200000722073746F707065642064756520746FDE
:10201000206572726F72732E20466978207468652D
:10202000206572726F7220616E6420757365204D39
:1020300039393920746F20726573746172742E207F
:102040002854656D706572617475726520697320BE
:1020500072657365742E20536574206974206166FF
:102060007465722072657374617274696E67290A8F
:10207000004E6F20436865636B73756D20776974DC
:1020800068206C696E65206E756D6265722C204CDF
:10209000617374204C696E653A2000636865636BF8
:1020A00073756D206D69736D617463682C204C616C
:1020B0007374204C696E653A20004C696E65204E41
:1020C000756D626572206973206E6F74204C617348
:1020D00074204C696E65204E756D6265722B312CD3
:1020E000204C617374204C696E653A20004D31318B
:1020F00030004D33310053442072656164206572B5
:10210000726F720A00446F6E65207072696E746936
:102110006E672066696C650A0020496E76616C699D
:102120006420657874727564657220000000000098
:1021300000000000000000000000484300003E4393
:1021400000002F4353544F505045442E20005072EE
:10215000696E7465722073746F7070656420647545
:102160006520746F206572726F72732E20466978D5
:1021700020746865206572726F7220616E642075CC
:102180007365204D39393920746F2072657374611D
:1021900072742E202854656D706572617475726555
:1021A0002069732072657365742E205365742069ED
:1021B00074206166746572207265737461727469EB
:1021C0006E67290A0053544F502063616C6C65643C
:1021D0002062656361757365206F6620424C546FA1
:1021E000756368206572726F72202D20726573743A
:1021F0006172742077697468204D3939390A004258
:10220000696C696E656172204C6576656C696E6794
:1022100020477269643A0A00534420636172642063
:102220006F6B0A006F70656E526F6F742066616924
:102230006C65640A00766F6C756D652E696E6974E5
:10224000206661696C65640A00534420696E697494
:10225000206661696C0A0057726974696E67207440
:102260006F2066696C653A20006F70656E2066614C
:10227000696C65642C2046696C653A20006F706556
:102280006E206661696C65642C2046696C653A2035
:102290000046696C652073656C65637465640A004B
:1022A0002053697A653A200046696C65206F706535
:1022B0006E65643A20002066696C653A2000646FA0
:1022C000696E67006672657368004E6F772000451F
:1022D0004E4420535542524F5554494E450A002210
:1022E00020706F73002220706172656E743A220054
:1022F000535542524F5554494E452043414C4C2072
:102300007461726765743A22004B494C4C45442E07
:102310002000747279696E6720746F2063616C6C41
:10232000207375622D67636F64652066696C6573E1
:10233000207769746820746F6F206D616E79206CEE
:102340006576656C732E204D4158206C6576656C02
:102350002069733A004572726F723A006F70656E51
:10236000206661696C65642C2046696C653A2000C2
:1023700020746F6F206C6F6E672065787472757350
:10238000696F6E2070726576656E7465640A0020F0
:10239000636F6C6420657874727573696F6E2070FA
:1023A000726576656E7465640A00436172642072BA
:1023B000656D6F766564004361726420696E736554
:1023C000727465640043616E6E6F74206F70656E29
:1023D0002073756264697220006563686F3A004516
:1023E0003120544845524D414C2052554E415741A1
:1023F0005900546865726D616C2052756E61776129
:10240000790053746F7720424C546F756368004DA8
:1024100032383020503020533930004465706C6FB2
:102420007920424C546F756368004D32383020502B
:10243000302053313000424C546F7563682053652F
:102440006C662D54657374004D3238302050302046
:102450005331323000526573657420424C546F75AD
:102460006368004D32383020503020533136300010
:102470004D61696E005072696E742061626F727492
:102480006564004E6F205344206361726400507293
:10249000696E742066726F6D2053440053746F70C0
:1024A000207072696E7400526573756D652070726C
:1024B000696E740041626F7574205072696E746544
:1024C00072005061757365207072696E7400436F9D
:1024D0006E74726F6C005072657061726500547535
:1024E0006E6500496E666F2073637265656E0046A7
:1024F0006C6F7700466C6F770046616E2073706575
:1025000065640046616E207370656564004E6F7A85
:102510007A6C65004E6F7A7A6C650046616465205E
:102520004865696768740046616465204865696745
:102530006874005370656564005370656564004D90
:1025400061696E00FFFDFCFAF8F6F4F2F0EEECEAD9
:10255000E9E7E5E3E1E0DEDCDAD9D7D5D4D2D0CFC4
:10256000CDCBCAC8C7C5C3C2C0BFBDBCBAB9B7B658
:10257000B4B3B2B0AFADACAAA9A8A6A5A4A2A1A0BD
:102580009E9D9C9A99989795949392908F8E8D8BFF
:102590008A8988878684838281807F7E7D7B7A7921
:1025A0007877767574737271706F6E6D6C6B6A6923
:1025B0006867666564636261605F5E5D5C5B5A5913
:1025C00058585756555453525150504F4E4D4C4BEE
:1025D0004A4A4948474646454443424241403F3EB5
:1025E0003E3D3C3B3B3A393838373635353433326B
:1025F000323130302F2E2E2D2C2B2B2A2929282713
:102600002726252524232322212120201F1E1E1DAD
:102610001C1C1B1B1A19191818171616151514133C
:102620001312121111100F0F0E0E0D0D0C0C0B0AC0
:102630000A0909080807070606050504040303023A
:102640000201000000000001000000010000800005
:10265000555555000000400033333300AAAA2A0024
:102660004992240000002000C7711C0099991900AC
:10267000D1451700555515003BB1130024491200F0
:1026800011111100000010000F0F0F00E3380E00B1
:1026900043790D00CCCC0C00C3300C00E8A20B0039
:1026A00064210B00AAAA0A00703D0A009DD8090007
:1026B000427B090092240900DCD3080088880800C6
:1026C0001042080000000800F0C1070087870700DB
:1026D00075500700711C07003EEB0600A1BC060008
:1026E0006990060066660600703E060061180600E6
:1026F00017F4050074D105005BB00500B290050029
:10270000627205005555050078390500B81E0500B0
:10271000050505004EEC040087D40400A1BD0400AB
:1027200090A7040049920400C17D0400EE690400F2
:10273000C7560400444404005C320400082104002D
:1027400041100400000004003FF00300F8E0030023
:1027500026D20300C3C30300CCB503003AA803008C
:102760000A9B0300388E0300C08103009F7503009D
:10277000D0690300505E03001D530300344803007A
:10278000913D03003333030016290300381F030073
:1027900097150300300C0300030303000BFA02003B
:1027A00049F10200BAE802005CE002002DD8020004
:1027B0002DD0020059C80200B0C0020031B9020099
:1027C000DAB10200AAAA0200A0A30200BC9C020087
:1027D000FA9502005C8F0200DF880200828202000C
:1027E000457C02002776020027700200436A02003F
:1027F0007C640200D05E02003F590200C853020010
:102800004D65736820706F696E742063616E6E6FC2
:1028100074206265207265736F6C7665640A00507F
:10282000726F7465637465642050696E0A00537436
:10283000616E6461726420446576696174696F6E6B
:102840003A20002052616E67653A2000204D617881
:102850003A2000204D696E3A20004D65616E3A20A5
:102860000046696E6973686564210A002072616EB2
:1028700067653A2000206D61783A2000206D696E0E
:102880003A2000207369676D613A2000206D656110
:102890006E3A20003A207A3A2000206F662000200D
:1028A0005A00205900205800476F696E6720746FE6
:1028B0003A00436C6F636B776973650A00436F7509
:1028C0006E7465722D0020446972656374696F6E61
:1028D0003A2000202020616E676C653A2000537416
:1028E000617274696E67207261646975733A200061
:1028F000506F736974696F6E696E672074686520C4
:1029000070726F62652E2E2E0A003F4E756D6265E5
:1029100072206F66206C65677320696E206D6F761C
:10292000656D656E74206E6F7420706C617573696F
:10293000626C652028302D3135292E0A003F202871
:10294000582C5929206F7574206F6620626F756E40
:1029500064732E0A003F53616D706C652073697A51
:1029600065206E6F7420706C61757369626C652090
:1029700028342D3530292E0A004D3438205A2D5058
:10298000726F6265205265706561746162696C691D
:10299000747920546573740A003F28562965726261
:1029A0006F7365206C6576656C20697320696D7046
:1029B0006C61757369626C652028302D34292E0A8C
:1029C000004261636B004E65787420636F726E65C0
:1029D00072004D34323800424C546F756368205396
:1029E000656C662D54657374004D3238302050305C
:1029F0002053313230005072656865617420414265
:102A000053005072656865617420504C4100436FFB
:102A10006F6C646F776E0044697361626C652073DC
:102A200074657070657273004D383400536574209E
:102A3000686F6D65206F66667365747300526573A9
:102A4000657420424C546F756368004C6576656C04
:102A500020636F726E65727300466164652048651D
:102A600069676874004661646520486569676874D1
:102A7000004F6666004F6E2000426564204C65760C
:102A8000656C696E67004D3238302050302053310C
:102A90003630004C6576656C2062656400473238DC
:102AA0000A47323900486F6D65205A004732382096
:102AB0005A00486F6D652059004732382059004848
:102AC0006F6D652058004732382058004175746F8B
:102AD00020686F6D6500473238004D6F7665206164
:102AE000786973004D61696E0048617264636F6458
:102AF00065642044656661756C74205365747469FF
:102B00006E6773204C6F616465640A00D007000033
:102B1000D00700006400000010270000000096436A
:102B2000000096430000A0400000C8410000A04201
:102B30000000A0420000C8430040D1433A0A0020F0
:102B4000286D6D290020204D383531205A005A2D2E
:102B500050726F6265204F66667365740020440092
:102B600020490020204D333031205000504944206E
:102B700073657474696E67733A0A002046002042D8
:102B80000020480020204D3134352053004D617421
:102B9000657269616C20686561747570207061721E
:102BA000616D65746572733A0A00205A00204A000C
:102BB00020204732392057204900205A0020204D3C
:102BC0003432302053004175746F20426564204CCC
:102BD0006576656C696E673A0A00205A00205900D4
:102BE00020204D323036205800486F6D65206F66CA
:102BF000667365743A0A00204A002054002053008E
:102C000020204D323035204200204A3C6A756E63E8
:102C10005F6465763E00416476616E6365643A2068
:102C2000423C6D696E5F7365676D656E745F746954
:102C30006D655F75733E20533C6D696E5F666565BB
:102C400064726174653E20543C6D696E5F7472619C
:102C500076656C5F66656564726174653E002054DC
:102C60000020520020204D32303420500041636358
:102C7000656C65726174696F6E2028756E69747316
:102C80002F7332293A20503C7072696E745F616311
:102C900063656C3E20523C726574726163745F615F
:102CA0006363656C3E20543C74726176656C5F6151
:102CB0006363656C3E0A00204500205A00205900DD
:102CC00020204D3230312058004D6178696D756D8E
:102CD00020416363656C65726174696F6E2028754D
:102CE0006E6974732F7332293A0A00204500205A06
:102CF0000020590020204D3230332058004D61789B
:102D0000696D756D206665656472617465732028F0
:102D1000756E6974732F73293A0A00204500205A92
:102D20000020590020204D3932205800537465701E
:102D3000732070657220756E69743A0A0020204D08
:102D40003230302044300A0020204D3230302044D0
:102D5000002044697361626C65640A0046696C61B5
:102D60006D656E742073657474696E67733A0020C4
:102D7000204D3134392043203B20556E6974732037
:102D8000696E2043656C736975730A0020204732B1
:102D900031202020203B004D3234004D323320259D
:102DA0007300556E6B6E6F776E20636F6D6D616E25
:102DB000643A20220050726F62696E672066616912
:102DC0006C65640A0050726F62696E6720666169A3
:102DD0006C656400205A3A200020593A2000426570
:102DE0006420583A2000486F6D65202573257325AF
:102DF00073206669727374002066697273740A00C6
:102E00005A0059005800486F6D652000506C65618C
:102E10007365207265736574005052494E54455273
:102E20002048414C544544005072696E74657220CC
:102E300068616C7465642E206B696C6C2829206352
:102E4000616C6C6564210A00656E717565756569F4
:102E50006E6720220000000000000000000000005B
:102E600000000048420000484200002041000000ED
:102E7000005761726E696E673A20486F6D696E67C0
:102E80002042756D702044697669736F72203C2012
:102E9000310A000202040000A0400000A04000002F
:102EA00000400000484300003E4300002F43FFFF66
:102EB000FF486F6D696E67206661696C656400200C
:102EC0002844525952554E290047323920417574D1
:102ED0006F20426564204C6576656C696E67003FC3
:102EE00020284C2C522C462C4229206F7574206FC0
:102EF0006620626F756E64732E0A003F285629653E
:102F000072626F7365206C6576656C2069732069E9
:102F10006D706C61757369626C652028302D342981
:102F20002E0A00426164205A2076616C75650A00A1
:102F30004E6F2062696C696E6561722067726964A8
:102F40000A00205A3A200020593A200042656420A5
:102F5000583A200046696C616D656E742075736522
:102F6000643A200053746174733A20002C204C6F33
:102F70006E67657374206A6F623A2000546F7461E3
:102F80006C2074696D653A200053746174733A2043
:102F9000002C204661696C65643A20002C2046694B
:102FA0006E69736865643A20005072696E74733A92
:102FB000200053746174733A200020573A00452072
:102FC000436F6F6C696E672E2E2E00452048656139
:102FD00074696E672E2E2E00205A3A0020423A0065
:102FE00020436F756E7420413A0020453A00205A04
:102FF0003A0020593A00583A003A004361703A00CA
:103000004D6F76652058004D6F76652059004D6FE5
:103010007665205A004578747275646572004D6F4C
:10302000766520302E316D6D004D6F766520316DE7
:103030006D004D6F76652031306D6D004D6F76659A
:103040002061786973004578747275646572004D0B
:103050006F7665205A004D6F76652059004D6F766A
:10306000652058004578747275646572004D6F76FE
:1030700065205A004D6F76652059004D6F766520AA
:10308000580050726570617265006265640A002CB8
:103090002073797374656D2073746F70706564212B
:1030A000204865617465725F49443A2000453120CB
:1030B00048656174696E67206661696C6564004883
:1030C000656174696E67206661696C656400BC0047
:1030D000C20011241FBECFEFD1E2DEBFCDBF00E0A2
:1030E0000CBF13E0A0E0B2E0E0E5FFE302E00BBFBD
:1030F00002C007900D92A837B107D9F725E1A8E7DC
:10310000B3E001C01D92A135B207E1F718E1C8E6AE
:10311000D8E100E006C021970109802FFE010F943D
:103120000C1FC736D10780E00807A9F70F9489085C
:103130000D94971F0C9400002F923F924F925F9234
:103140006F927F928F929F92AF92BF92CF92DF92B7
:10315000EF92FF920F931F93CF93DF93CDB7DEB71C
:10316000C057D1090FB6F894DEBF0FBECDBF11E036
:1031700010933307809147158D3409F4ADC284351F
:1031800011F40C945D2F873411F00C949A2F8091D8
:103190004515909146158C31910509F416C2A4F499
:1031A0008430910534F482309105ACF597FF2CC042
:1031B0008FC28430910509F4CAC14A9709F088C2C8
:1031C0000E949B390C949C2F8A32910509F405C208
:1031D0005CF48D31910509F4FCC14E9709F078C279
:1031E0000E9413F30C949C2F8B35910509F4F9C1BF
:1031F0008C35910509F4F9C18A35910509F068C249
:10320000109289030C949C2F8091650281110C947B
:10321000A12F0C949C2F20916502222311F40C9471
:103220009C2F11E0029709F010E00E940AF4198225
:103230001A821B821C821D821E821F82188682E5D2
:103240000E944338882309F432C10E94C9376B01B8
:103250007C01209165083091660840916708509183
:1032600068082EA33FA348A759A7809069089090AB
:103270006A08A0906B08B0906C08809179089091D2
:103280007A08A0917B08B0917C088AA79BA7ACA77D
:10329000BDA720917D0830917E0840917F08509114
:1032A00080082EA73FA748AB59AB20E030E0A9012A
:1032B000C701B6010F94A717882309F40EC12EA1E8
:1032C0003FA148A559A56AA57BA58CA59DA50F94EE
:1032D000A71781110BC0A50194016EA57FA588A930
:1032E00099A90F94A717882309F4F7C020E030E0CC
:1032F000A901C701B6010F94A717881F8827881F47
:1033000018130BC080E090E0A0E8BFE322968CAFDA
:103310009DAFAEAFBFAF22970AC020E030E040E8DB
:103320005FEB22962CAF3DAF4EAF5FAF22972EA141
:103330003FA148A559A56AA57BA58CA59DA50F947D
:10334000101C6EAB7FAB88AF99AFA50194016EA541
:103350007FA588A999A90F94101C6AAF7BAF8CAF89
:103360009DAF2EA93FA948AD59ADCA01B9010F942F
:103370000C182B013C012AAD3BAD4CAD5DADCA0133
:10338000B9010F940C189B01AC01C301B2010F9459
:10339000111C0F947C1E6AAB7BAB8CAB9DAB20E009
:1033A00030E040E05FE30F940C182B013C01A701D3
:1033B0009601C701B6010F940C186B017C01A301A3
:1033C0009201C301B2010F940C189B01AC01C7011B
:1033D000B6010F94101C0F947C1E9B01AC01229629
:1033E0006CAD7DAD8EAD9FAD22970F940C186B0127
:1033F0007C012AA53BA54CA55DA56EA17FA188A552
:1034000099A50F94111C20E030E040E05FE30F9499
:103410000C182B013C016AAD7BAD8CAD9DAD905875
:103420002AA93BA94CA95DA90F94ED1C9B01AC01F5
:10343000C701B6010F940C189B01AC01C301B20186
:103440000F94111C2EA13FA148A559A50F94101C43
:1034500069837A838B839C832EA53FA548A959A9AC
:10346000C501B4010F94111C20E030E040E05FE39F
:103470000F940C182B013C012AA93BA94CA95DA96A
:103480006EA97FA988AD99AD0F94ED1C9B01AC018D
:10349000C701B6010F940C189B01AC01C301B20126
:1034A0000F94111CA50194010F94101C12C089E403
:1034B0000E944338882331F00E94C93769837A8398
:1034C0008B839C838AE40E944338882331F00E94D6
:1034D000C9376D837E838F83988720E030E0A90110
:1034E00069817A818B819C810F94A71781110BC010
:1034F00020E030E0A9016D817E818F8198850F9455
:10350000A717882351F0412FBE016F5F7F4F89E7D6
:1035100098E00E94CF860C949C2FE5E5F3E284911D
:103520008F010F5F1F4F882321F00E946036F80142
:10353000F6CFEDE0F2E084918F010F5F1F4F8823FB
:1035400011F40C949C2F0E946036F801F4CF80E5B2
:103550000E944338882329F00E948A356B017C0140
:1035600003C0C12CD12C760183E50E944338882307
:1035700061F00E94C93720E030E04AE754E40F943C
:103580000C180F945A1D6B017C010E94D5CD8091BF
:10359000D70A811105C060E083E292E00E94575F84
:1035A0000E94EA57C60ED71EE81EF91E0E94EA576F
:1035B000DC01CB018C199D09AE09BF09B7FD02C022
:1035C0000C949C2F0E943D83F1CF0E94B8EB0C9489
:1035D0009C2F0E94F7F50C949C2F0E945BD70C94B3
:1035E0009C2F109389030C949C2F6BE6262E62E08F
:1035F000362E75EEC72E74E1D72EE12CF12C00E0AB
:1036000010E0D1018D911D010E944338882309F4F7
:103610004EC00E94C9372B013C01133059F0F7010D
:10362000EC52FB4E20813181428153810F94101C5A
:103630002B013C01F701EB59F74F20813181428189
:103640005381C301B2010F94101C4B015C012DEB9F
:1036500037E346E855EB0F94371E87FD0AC02DEB84
:1036600037E346E855E3C501B4010F94A7171816D0
:10367000F4F4133051F44092710850927208609241
:1036800073087092740801E012C0A5019401F6015C
:1036900060817181828193810F94111CD6016D9399
:1036A0007D938D939C931397812F0E94A09D1F5F04
:1036B000B4E0CB0ED11CE4E0EE0EF11C143009F0A6
:1036C000A0CF01110E943CA80E9407FB0C949C2FE4
:1036D0000E9486EC0C949C2F809145159091461584
:1036E0008237910509F400C70CF0BDC08133910504
:1036F00009F4ACC40CF04FC08931910509F4B8C28B
:103700001CF58431910509F445C27CF481319105A1
:1037100009F431C22CF4029708F4B5C10C945A2F65
:10372000429709F41CC60C945A2F8631910509F46E
:1037300078C20CF472C28731910509F478C24897B7
:1037400009F48BC20C945A2F8E31910509F448C3A9
:1037500084F48B31910509F49FC20CF48FC28C3133
:10376000910509F433C34D9711F40C949C2F0C94DC
:103770005A2F8032910509F4CEC30CF418C48A3252
:10378000910509F43EC4C09711F00C945A2F0E9481
:1037900020D20C949C2F8C35910509F430C684F509
:1037A0008135910509F4BDC5DCF48C34910509F42B
:1037B00072C44CF48B34910511F00C945A2F0E9472
:1037C000C3DB0C949C2F8D34910509F468C48E34AE
:1037D000910511F00C945A2F0E94CBFD0C949C2F54
:1037E0008335910509F4B6C50CF4B0C5843591054F
:1037F00009F4B5C58535910509F4E6C50C945A2F31
:103800008C36910509F4DFC4ACF48936910509F4CE
:1038100012C534F48836910509F445C40C945A2F26
:103820008A36910509F44DC58B36910509F467C5B3
:103830000C945A2F8F36910509F477C454F48D36C1
:10384000910509F43AC58E36910509F45BC40C94D0
:103850005A2F8037910509F4BAC48137910509F4CC
:10386000BEC40C945A2F8C32F1E09F0711F40C94D3
:10387000AC280CF089C0893C910511F40C946124AA
:10388000D4F58837910509F452C7CCF485379105F2
:1038900009F48CC644F48337910511F00C945A2F27
:1038A000E8E0F4E027C68637910509F490C687372B
:1038B000910511F00C945A2FEEEEF4E0D4C6813944
:1038C000910509F43CC76CF48937910511F00C940B
:1038D0005A2F1092D0141092D1140E94B9D10C9486
:1038E0009C2F8B39910509F4C1C4883C910509F4DA
:1038F000A0C70C945A2F833D910511F40C9478269F
:1039000054F58C3C910511F40C9499247CF48B3C77
:10391000910511F00C945A2FEBE9EE2EE7E0FE2E04
:103920000BE612E0F4E0DF2ED00EF4C78D3C9105DB
:1039300011F40C9411258E3C910511F00C945A2F22
:103940006BE6C62E62E0D62E73E3E72E74E0F72E08
:1039500010E00C9487258D3D910511F40C94682797
:103960003CF48C3D910511F40C9459270C945A2F7A
:10397000823E910511F40C94D7278831914011F4BF
:103980000C9402280C945A2F853A41E0940711F4C4
:103990000C94202EA4F58039A1E09A0711F40C9420
:1039A000062DC4F48E32E1E09E0711F40C947629C2
:1039B00014F40C94D5288F3221E0920711F40C9462
:1039C000CA298336914011F00C945A2FE5E5F3E2B1
:1039D0000C94EF2C823941E0940711F40C940F2DD4
:1039E00014F40C94092D8A39A1E09A0709F4F3C361
:1039F000843A914011F40C94172D0C945A2F873F60
:103A0000E1E09E0711F40C94B82EECF4843F21E021
:103A1000920711F40C94B22E3CF48C3A914011F4BC
:103A20000C9499250C945A2F853F51E0950711F479
:103A30000C94B52E863F914011F00C945A2F0E94A1
:103A40007CE70C949C2F8B38B3E09B0711F40C940B
:103A50009C2F6CF4883FF1E09F0711F40C94C32E67
:103A60008335934011F40C94E42E0C945A2F803A31
:103A700033E0930709F48EC2873E934011F40C940F
:103A8000452F0C945A2FA0904315B090441580E513
:103A90000E944338882359F00E948A356B017C01CB
:103AA00011E0672B682B692B31F410E004C010E0A3
:103AB000C12CD12C760183E50E944338882311F470
:103AC0000C94A62F0E94C93720E030E04AE754E466
:103AD0000F940C180F945A1D6B017C0111110BC02F
:103AE000672B682B692B39F4A114B10421F0D5019F
:103AF0008C91811102C010E001C011E00E94D5CD6F
:103B0000112329F061E0C5010E94915F05C060E0CA
:103B10008CE292E00E94575F83E08093330781E05C
:103B20008093C30AC114D104E104F104E9F00E94B6
:103B3000EA57C60ED71EE81EF91E0E94EA57DC019E
:103B4000CB018C199D09AE09BF09B7FD06C00E94C3
:103B5000E34D1092C30A0C949C2F8091C30A8823D2
:103B6000B1F30E943D83E9CF8091C30A882379F3A2
:103B70000E943D83F9CF60E08FE392E00E94575F9F
:103B80005F988A988091080181708093060112984D
:103B90000C949C2FE7E5F2E084918F010F5F1F4F9B
:103BA000882321F00E946036F801F6CF1092610E52
:103BB00040E050E0BA0184E19CE00E94B0698BE1F2
:103BC000E4E1FCE0DE01159601900D928A95E1F7A3
:103BD0008091120C9091130C9C838B8381E393E072
:103BE0009A83898340E050E0BE016F5F7F4F80E0A1
:103BF00090E00E9405C4CE0101960E9473F2E8E4B1
:103C0000F2E084918F010F5F1F4F882311F40C9411
:103C10009C2F0E946036F801F4CF0E940BA50C94F3
:103C20009C2F1092BD0B1092BE0B0C949C2FE09118
:103C30004315F09144158081882329F0803209F4DE
:103C400010823196F8CF40E061E080914315909169
:103C500044150E941DA30C949C2F8091BE0B8823B9
:103C600019F081E08093BD0B0E94C3DB0C949C2F64
:103C70001092BD0B0F94A2050C949C2F8091BE0B4B
:103C8000882311F40C949C2F83E50E944338811102
:103C90000C94AB2F0C949C2F83E40E94FC37882358
:103CA00009F454C0E5E9F2E084918F010F5F1F4FE2
:103CB000882321F00E946036F801F6CF8091AF0D85
:103CC000882391F0BE016F5F7F4F8CEA9DE00E94D8
:103CD000A0708E010F5F1F4FF80181918F01882323
:103CE00081F10E946036F8CFE8E6F2E084918F011E
:103CF0000F5F1F4F882329F10E946036F801F6CF2D
:103D00008091A00A882309F451C25DEEC52E52E0CD
:103D1000D52EE12CF12C20E08091A00A90E00E2C11
:103D200002C0959587950A94E2F780FD27C2FFEFC0
:103D3000EF1AFF0A32E0C30ED11C45E0E416F1048D
:103D400059F78AE00E9460360C949C2F8091BE0B3C
:103D5000882371F18091BD0B882351F1E2E7F2E0F5
:103D600084918F010F5F1F4F882321F00E946036DE
:103D7000F801F6CF60915D0E70915E0E80915F0E3E
:103D80009091600E4AE00E946A368FE20E9460368F
:103D90006091590E70915A0E80915B0E90915C0E5D
:103DA0004AE00E946A368AE00E9460360C949C2F9A
:103DB000E4E8F2E084918F010F5F1F4F882311F434
:103DC0000C949C2F0E946036F801F4CF40E060E034
:103DD00080914315909144150E941DA30C949C2F33
:103DE0008091BE0B882311F40C949C2F8CEA9DE0EB
:103DF0000E946F698CEA9DE00E9429EE1092BC0B34
:103E00001092BB0B00914315109144158091BE0B8D
:103E1000882311F40C949C2F0E9412A3B801CE01A8
:103E200080960E945AA28C01892B11F40C949C2F2D
:103E300068A179A16115710511F06C5F7F4F19823E
:103E40001C8222E0A801CE0101960E94B16F81116F
:103E500002C0F12C1EC0CE0101960E9473C38823BC
:103E6000C1F36D857E858F85988941E00E94C0678A
:103E7000882379F3E98920E2E29FF0011124E757D2
:103E8000F74F309731F385EE80831C820E94806764
:103E9000F82ECE0101960E945A36FF2011F1E4EA75
:103EA000F2E084917F013FEFE31AF30A882321F0C7
:103EB0000E946036F701F5CFD8018D918D018823DE
:103EC00019F00E946036F8CF8AE00E9460361092A6
:103ED0005D0E10925E0E10925F0E1092600E0C94AA
:103EE0009C2FE2EBF2E084917F01BFEFEB1AFB0A1B
:103EF000882321F00E946036F701F5CFF801819107
:103F00008F01882319F00E946036F8CF8EE20E945C
:103F100060360C949C2F8091BD0B81110E94D5CDF1
:103F20008091BE0B882311F40C949C2F80E50E9495
:103F30004338882319F00E94BA3703C080E50E94F5
:103F4000FC37182F482F61E080914315909144155C
:103F50000E941DA383E50E944338882381F00E94BC
:103F60009937AB01BC0140935D0E50935E0E609398
:103F70005F0E7093600E8CEA9DE00E94B0698091A4
:103F8000BE0B882319F081E08093BD0B11110C94B6
:103F90009C2F6ACE809143159091441521E0209387
:103FA000BC0B40E060E00E941DA30C949C2F0F947A
:103FB0006E0568A379A38AA39BA3BE016F5F7F4FA1
:103FC000CE0180960E949A3560E0CE0101960E9453
:103FD000915FE9EDF3E284918F010F5F1F4F88231A
:103FE00021F00E946036F801F6CFBE016F5F7F4F6F
:103FF0008AEC92E00E949BDB8AE00E9460360C947F
:104000009C2F83E50E944338882311F40C949C2F45
:104010000E94A937E82E80E50E944338882339F0B2
:104020000E94A937182F87FF03C00C949C2F1DE016
:10403000EBEDF5E08DE28E0F9491191711F40C94CD
:10404000CF2F31968E13F8CF0C94BB2F809178032D
:10405000182710937803E2EEF2E084917F012FEFAE
:10406000E21AF20A882321F00E946036F701F5CFA8
:10407000111103C0ECEDF2E002C0E7EDF2E0849133
:104080008F010F5F1F4F882311F40C949C2F0E9407
:104090006036F801F4CF0F94A2050C949C2F0E9477
:1040A00021DC0C949C2F88E690E00E94E09D811119
:1040B0000C949C2F8091A00A83FF02C00C949C2F2B
:1040C00083E50E9443388823C9F00E94C9370F94C2
:1040D000551D70938C0660938B0680E00E940855F6
:1040E0000E94C93720E030E04AEA52E40F94A71753
:1040F000181624F00E9421DC0E94E34D0E94A1DCEE
:104100000C949C2F8EE40E944338882311F40C9465
:104110009C2F0E9499376093960A7093970A809318
:10412000980A9093990A0C949C2F83E50E94FC377F
:10413000882359F083E50E944338882319F00E94B0
:10414000A93701C080E08093A00AE9EDF3E28491F1
:104150008F010F5F1F4F882321F00E946036F80106
:10416000F6CFEBEFF2E084918F010F5F1F4F8823B2
:1041700009F4C6CD0E946036F801F5CFBB24B39494
:10418000B20E222319F08CE20E946036F6012591CE
:104190003491F901849189010F5F1F4F882321F029
:1041A0000E9460369801F5CF2B2DC1CDE7EFF2E0EC
:1041B00084918F010F5F1F4F882309F4C2CD0E94A5
:1041C0006036F801F5CF109218020C949C2F82E013
:1041D00093E00E947BF20E9485FA0C949C2F83E569
:1041E0000E944338882369F00E94A9378D3320F458
:1041F000809339020C949C2F8CE3809339020C94A9
:104200009C2FE9EDF3E284918F010F5F1F4F88230C
:1042100021F00E946036F801F6CF4091390250E05B
:1042200060E070E08BE093E00E9448DB8AE00E944F
:1042300060360C949C2F89E690E00E94E09D8111ED
:1042400011C0E2E1F3E084918F010F5F1F4F8823DB
:1042500021F00E946036F801F6CF0E949E538AE05A
:104260000E946036109233070C94453283E50E9419
:104270004338882311F40C949C2F0E94A937182FDF
:104280008D3308F01CE3109340070E94EA576B013E
:104290007C01212F30E0A8EEB3E00F94011CC60E84
:1042A000D71EE81EF91EC0923C07D0923D07E0924F
:1042B0003E07F0923F070C949C2F0E94F4FB0C9455
:1042C0009C2F80E50E944338811106C083E50E943F
:1042D0004338882361F006C00E94A93781110C94ED
:1042E0009C2FF4CF0E9499376F3F710510F06FEF4C
:1042F00070E07093C8056093C7050C949C2F80E50F
:104300000E944338811106C01092C8051092C7055B
:104310000C949C2F0E949937672B11F00C949C2FC2
:10432000F3CF0E9452550E943FCE1092C8051092C2
:10433000C70568EE73E080E090E00E94945E60E064
:1043400085E193E00E94575F0C949C2F10928803A4
:104350000C949C2F81E0809388030C949C2F83E520
:104360000E9443388823A1F00E94C93720E030E042
:104370004AE754E40F940C180F945A1D60933A02C4
:1043800070933B0280933C0290933D020C949C2FCF
:1043900088E50E94FC3781110C94D22F89E50E9498
:1043A000FC3781110C94D22F8AE50E94FC378111D1
:1043B0000C94D22F85E40E94FC3781110C94D22FEB
:1043C0000E943FCE0C949C2F83E50E94FC378823EB
:1043D00011F40C949C2F0E94C93720E030E04AE78A
:1043E00054E40F940C180F945A1D6093380770937F
:1043F000390780933A0790933B070C949C2F3BE638
:10440000C32E32E0D32E4DE4E42E48E0F42E10E02B
:10441000D6018D916D010E94FC37882309F459C0A3
:10442000133009F04FC00E94C9374B015C0120E0F6
:1044300030E040EA51E40F94A71787FF3AC0A50186
:1044400094016091590870915A0880915B0890918D
:104450005C080F94ED1C2B013C019B01AC016091A9
:10446000A7077091A8078091A9079091AA070F94B8
:104470000C186093A7077093A8078093A9079093DF
:10448000AA0760918B0E70918C0E80918D0E909189
:104490008E0E0F94AB17A30192010F940C180F947A
:1044A0005A1D60938B0E70938C0E80938D0E90939B
:1044B0008E0E8092590890925A08A0925B08B09292
:1044C0005C0807C00E94C937F7016083718382834B
:1044D00093831F5FF4E0EF0EF11C143009F098CFC6
:1044E0000E941BDE0C949C2F0E94D5CD0E9407FBDE
:1044F0000C949C2F84918F010F5F1F4F882321F014
:104500000E946036F801F6CF60E088EF93E00E94E9
:10451000C3FA61E081EF93E00E94C3FA61E086EEA6
:1045200093E00E94C3FA61E086ED93E00E94C3FA33
:1045300060E08DEC93E00E94C3FA61E083EC93E0CD
:104540000E94C3FA61E089EB93E00E94C3FA61E044
:1045500081EB93E00E94C3FA61E083EA93E00E945A
:10456000C3FA60E085E993E00E94C3FA60E086E860
:1045700093E00E94C3FA60E088E793E00E94C3FAE8
:1045800060E082E693E00E94C3FA60E081E593E098
:104590000E94C3FA60E08CE393E00E94C3FA61E0FA
:1045A00089E293E00E94C3FA0C949C2F80914315FA
:1045B00090914415DC012C91222329F060E00E94A7
:1045C000915F0C949C2F0E94E34D0C949C2F0091C2
:1045D00043151091441583E0D12C40E08150E1F067
:1045E000F8019081292F2B7F2134C1F721812133BC
:1045F000A9F7913421F0953421F441E002C0DD2483
:10460000D39498012E5F3F4F89012F5F3F4FD80110
:104610009C919032C9F3E2CF442369F0E9EDF3E2D3
:1046200084917F01BFEFEB1AFB0A882321F00E94DF
:104630006036F701F5CFDD2069F0E2EDF4E084911A
:104640007F012FEFE21AF20A882321F00E946036E0
:10465000F701F5CFD8018D918D01882309F471CB35
:104660000E946036F7CF84918F010F5F1F4F882320
:1046700021F00E946036F801F6CFE6EEF4E0849176
:104680008F010F5F1F4F882321F00E946036F801D1
:10469000F6CF659B03C005E413E002C00AE413E013
:1046A000F80181918F01882319F00E946036F8CFBC
:1046B0008AE00E946036EEEDF4E084918F010F5F96
:1046C0001F4F882321F00E946036F801F6CF8091B9
:1046D000030181FF03C005E413E002C00AE413E014
:1046E000D8018D918D01882319F00E946036F8CF92
:1046F0008AE00E946036E6EDF4E084918F010F5F5E
:104700001F4F882321F00E946036F801F6CF4B99A5
:1047100003C005E413E002C00AE413E0F80181914C
:104720008F01882309F40DCB0E946036F7CF1093D8
:10473000D0141093D1140E94B9D10C949C2F83E50E
:104740000E944338882319F00E94993702C060E024
:1047500070E08B01112702301105D4F0E5E5F3E29A
:1047600084918F010F5F1F4F882321F00E946036D4
:10477000F801F6CFE8E0F5E084918F010F5F1F4F5D
:10478000882311F40C949C2F0E946036F801F4CF1A
:1047900088E40E9443388823A9F00E9499376A3A36
:1047A00071053CF06530F1E07F072CF064E071E0CA
:1047B00002C06AEA70E0F801EE0FFF1FE357F94FFD
:1047C0007183608386E40E9443388823A9F00E94A5
:1047D0009937F801EE0FFF1FEF56F94F7183608391
:1047E0006F3F710519F014F06FEF70E077FF02C0B2
:1047F00060E070E07183608382E40E944338882324
:1048000011F40C949C2F0E9499376530710534F097
:10481000683871052CF067E870E002C065E070E070
:10482000000F111FF801E857FB4E718360830C9451
:104830009C2F88EC90E00E94E09D81110C949C2FAD
:1048400084E40E94FC378823C1F10E94C93711E03B
:1048500020E030E0A9010F94A717811101C010E0FA
:1048600010937406112349F10E94C937E091230681
:1048700024E0E29FF0011124E059F94F6083718335
:104880008283938320E030E0A901609170067091EB
:10489000710680917206909173060F94A71781118B
:1048A0000CC080E090E0A0EEBFE380937006909390
:1048B0007106A0937206B09373060E947FCB0C948E
:1048C0009C2FABEAEA2EA7E0FA2E0BE612E0B4E04A
:1048D000DB2ED00ED8018D918D010E94FC378823EC
:1048E00049F00E94C9370F945A1DF7016083718304
:1048F00082839383F4E0EF0EF11CD012EBCF0E9481
:10490000D1DC0C949C2FF4E0EF0EF11CD01611F4C6
:104910000C949C2FD8018D918D010E94FC37882327
:1049200091F30E94C937F701608371838283938377
:10493000EACF83E50E9443388823A1F00E94C9375B
:104940006093C3077093C4078093C5079093C6070D
:104950006093BB077093BC078093BD079093BE071D
:1049600010E001C011E080E50E944338882359F02F
:104970000E94C9376093C3077093C4078093C5072B
:104980009093C60710E082E50E944338882359F0CF
:104990000E94C9376093BF077093C0078093C10717
:1049A0009093C20710E084E50E944338882361F0A9
:1049B0000E94C9376093BB077093BC078093BD0703
:1049C0009093BE070C949C2F112311F40C949C2FF0
:1049D0004091C3075091C4076091C5077091C60705
:1049E00080E395E00E9465DB4091BF075091C007CE
:1049F0006091C1077091C2078DE295E00E9465DB6E
:104A00004091BB075091BC076091BD077091BE07F4
:104A10008AE295E00E9465DB8AE00E9460360C9491
:104A20009C2F82E40E94FC37882351F00E948A3533
:104A300060939B0A70939C0A80939D0A90939E0AB0
:104A400083E50E94FC37882351F00E94C9376093A8
:104A50009707709398078093990790939A0784E536
:104A60000E94FC37882351F00E94C9376093930756
:104A70007093940780939507909396078AE40E9419
:104A8000FC37882311F40C949C2F0E94C9376B01CA
:104A90007C012AE037ED43E25CE30F94371E87FD8B
:104AA00014C02AE939E949E95EE3C701B6010F9468
:104AB000A717181654F0C092C707D092C807E09203
:104AC000C907F092CA070C949C2FE5E5F3E28491A4
:104AD0008F010F5F1F4F81110EC0E0E4F5E084915C
:104AE0008F010F5F1F4F882311F40C949C2F0E949D
:104AF0006036F801F4CF0E946036F801E8CF1F5FFE
:104B0000F4E0EF0EF11C133011F40C94641BD60189
:104B10008D916D010E94FC37882389F30E94C9376B
:104B2000F7016083718382839383812F0E94A09D0C
:104B3000E6CF0E948EE881110C949C2F55E5852EBE
:104B40005EE2952E25E638E03FA32EA3AE014F5F2F
:104B50005F4F5A010EEA1EE21A0153E0500F5AA7A6
:104B6000F4016591759185919491AEA1BFA1CD900D
:104B7000DD90ED90FD90BFA3AEA3A70196010F9429
:104B8000101C2B013C0120E030E040EA51EC0F9476
:104B9000371E87FD10C020E030E040EA51E4C30139
:104BA000B2010F94A717181634F0F1014082518218
:104BB000628273820DC0F80184911816B4F7F7FA77
:104BC000F094F7F8F094F101C082D182E282F3828E
:104BD000D101CD90DD90ED90FD901D0120E030E001
:104BE00040EA51ECC701B6010F94371E87FF03C09E
:104BF000E5E5F3E20BC020E030E040EA51E4C70114
:104C0000B6010F94A71718167CF5F2CF84918F0187
:104C10000F5F1F4F882321F00E946036F801F6CF06
:104C2000EDE7F5E084918F010F5F1F4F882321F09E
:104C30000E946036F801F6CF61E08FE695E00E94B1
:104C4000575F0E94B84E88E290E099A388A388EC51
:104C500090E09DA38CA3BE01605E7F4FCE01849641
:104C60000E94FFC20C949C2FB4E08B0E911C0F5F2E
:104C70001F4FEAA5E01374CF43E3E42E44E0F42E83
:104C800010E0F50181919191A191B1915F01F7013E
:104C900081939193A193B1937F01812F0E94A09D55
:104CA0001F5F133071F70E9407FB60E08FE595E00E
:104CB0000E94575F83E992E09DA38CA304E610E075
:104CC00019A308A3BE016C5D7F4FCE0180960E94A0
:104CD000FFC28AEB92E09DA38CA319A308A3BE0197
:104CE0006C5D7F4FCE0180960E94FFC20C949C2F7A
:104CF000E9EDF3E284918F010F5F1F4F882321F0CC
:104D00000E946036F801F6CF83E50E94FC378823C5
:104D100021F00E94BA3780936402E3ECF5E08491BD
:104D20008F010F5F1F4F882321F00E946036F8012A
:104D3000F6CF80916402811103C0EFEBF5E002C071
:104D4000EBEBF5E084918F010F5F1F4F882321F07B
:104D50000E946036F801F6CFE3EBF5E084918F0115
:104D60000F5F1F4F882321F00E946036F801F6CFB5
:104D70002091D4143091D5144091D6145091D71469
:104D80006091790370917A0380917B0390917C0309
:104D90000F94111CAB01BC0181EB95E00E9465DB17
:104DA0002091D8143091D9144091DA145091DB1429
:104DB00060917D0370917E0380917F0390918003C9
:104DC0000F94111CAB01BC018EEA95E00E9465DBDB
:104DD0002091DC143091DD144091DE145091DF14E9
:104DE0006091810370918203809183039091840389
:104DF0000F94111CAB01BC018BEA95E00E9465DBAE
:104E0000E3EAF5E084918F010F5F1F4F882321F0C3
:104E10000E946036F801F6CF2091D4143091D51459
:104E20004091D6145091D714609158027091590254
:104E300080915A0290915B020F94111CAB01BC014E
:104E400081EA95E00E9465DB2091D8143091D91455
:104E50004091DA145091DB1460915C0270915D0214
:104E600080915E0290915F020F94111CAB01BC0116
:104E70008EE995E00E9465DB2091DC143091DD1411
:104E80004091DE145091DF146091600270916102D4
:104E900080916202909163020F94111CAB01BC01DE
:104EA0008BE995E00E9465DB8AE00E9460360C94F5
:104EB0009C2F83E50E944338882311F40C949C2F87
:104EC0000E94993770934902609348020C949C2F7A
:104ED0008DED90E00E94E09D81110C949C2F83E564
:104EE0000E9443388823D9F10091230610E00E94E4
:104EF0009937000F111FF801EA5BFD4F7183608342
:104F00008091230690E08C01000F111F000F111FEC
:104F100098012E5B3D4F7901880F991FFC01EA5BD8
:104F2000FD4F60817181072E000C880B990B0F9447
:104F3000AD172AE037ED43E25CE30F940C18F8015B
:104F4000E259F14F20813181428153810F940C1835
:104F5000D7016D937D938D939C931397EDC7E9EDE6
:104F6000F3E284918F010F5F1F4F882321F00E948D
:104F70006036F801F6CF85E40E9460368091230602
:104F8000805D0E946036E0912306F0E0EE0FFF1F87
:104F9000EA5BFD4F6081718183ED95E00E9482DBC9
:104FA00085E20E9460368AE00E946036C5C780E5CF
:104FB0000E94FC37882309F4BFC70E9499376B0110
:104FC0007C0183E50E944338882321F00E949937B1
:104FD0008B0102C00FEF1FEFC8010196039708F085
:104FE000ABC7D7FE01C0A8C79C2DEBEDF5E08DE265
:104FF0008E0F2491921709F4D2C731968E13F9CFF0
:105000000C94023080E50E94FC37882309F494C791
:105010000E9499376B017C018B01672B09F07EC0E0
:1050200083E50E94FC37882339F00E9499378AE98A
:105030009BE00E941DDA80C7E9EDF3E284917F01D5
:10504000BFEFEB1AFB0A882321F00E946036F701BC
:10505000F5CF60E070E081E296E00E9482DB809113
:105060009C0B28E532E06901C81AD10887FDD3946A
:10507000CC0CDD1CCC0CDD1C0D2C000CEE08FF084C
:1050800080919B0B28E830E04901881A910887FD40
:105090009394880C991C880C991C092C000CAA0864
:1050A000BB0880919A0B8F3FB9F090E0FC01EE0FA6
:1050B000FF1F8E0F9F1FFC01E35DF44F01811281E2
:1050C00073E0000F111F7A95E1F7E4E0169507955C
:1050D000EA95E1F70E5F1F4F98012F5F3F4FC9011F
:1050E000330FAA0BBB0B9C01AD01281939094A09E2
:1050F0005B09A4EBB0E00F94F11BA70196012819FE
:1051000039094A095B090F94D51BB9018EE196E074
:105110000E9482DB8AE00E9460360EC7E5E5F3E27A
:1051200084918F010F5F1F4F882321F00E9460360A
:10513000F801F6CFB60187E196E00E9482DBE8E055
:10514000F6E084918F010F5F1F4F882309F4F4C6A6
:105150000E946036F801F5CF83E50E94433888232A
:1051600019F00E94993702C064E071E079A368A346
:1051700080E50E944338882339F00E9499376938C6
:10518000E3E17E0730F402C068EE73E07A8369835E
:1051900004C088E893E19A838983BE01605E7F4FF3
:1051A000CE0101960E94FFC2C7C685E40E94433823
:1051B000811110C080E50E94FC37882391F00E9485
:1051C000C93760937E0670937F0680938006909324
:1051D000810607C00E94A937882361F3E5E5F3E261
:1051E0006EC089E40E94FC37882381F00E94C93791
:1051F0002CEA35EC47E25EE30F940C1860938606C8
:1052000070938706809388069093890684E40E94B1
:10521000FC37882381F00E94C9372CEA35EC47E23D
:105220005EE30F94ED1C6093820670938306809377
:10523000840690938506E9EDF3E284918F010F5F78
:105240001F4F882321F00E946036F801F6CF40916D
:105250007E0650917F06609180067091810681E301
:1052600096E00E9465DB2CEA35EC47E25EE3609154
:1052700086067091870680918806909189060F9422
:10528000ED1CAB01BC018DE296E00E9465DB2CEACF
:1052900035EC47E25EE3609182067091830680916F
:1052A0008406909185060F940C18AB01BC0189E22D
:1052B00096E00E9465DB8AE00E9460363DC68491DC
:1052C0008F010F5F1F4F882321F00E946036F80185
:1052D000F6CFE5E3F6E084918F010F5F1F4F88233F
:1052E00009F42AC60E946036F801F5CF83E50E94D2
:1052F000FC37182F882371F00E94C9370F94551D71
:1053000070933F0260933E0221E0672B09F020E09A
:1053100020939F0A80E50E94FC37882359F0209152
:105320003E0230913F02232B11F00E94BA37809346
:105330009F0A02C6111100C6E9EDF3E284918F01C4
:105340000F5F1F4F882321F00E946036F801F6CFCF
:1053500080919F0A811103C064E573E002C067E495
:1053600073E08CE596E00E949BDB60913E027091B9
:105370003F028BE496E00E9482DBE7E4F6E0849152
:105380008F010F5F1F4F882309F4D6C50E94603636
:10539000F801F5CF85E40E944338882321F00E946C
:1053A00099377B0102C0E12CF12C83E40E94433841
:1053B000882331F00E94993763966FAF639704C0DA
:1053C00025E063962FAF639785E50E9443388823D5
:1053D00019F00E94BA3703C085E50E94FC376F962A
:1053E0008FAF6F97F7FC07C0812C912C56E1A52E4B
:1053F00053E4B52E06C0812C912C4CE8A42E42E437
:10540000B42E83E50E944338882321F00E94C937D7
:105410004B015C01E114F10411F4109223060E9487
:10542000EA572B013C01EE2069F0EEEDF7E08491A4
:105430008F010F5F1F4F882309F47EC50E946036DD
:10544000F801F5CFE8E0F8E084917F013FEFE31A3F
:10545000F30A882321F00E946036F701F5CFC501D9
:10546000B4010F94551D072E000C880B990B0F9457
:10547000AD176EA77AAB8EAB9AAFD301C201805E37
:10548000914BAF4FBF4FAB968CAF9DAFAEAFBFAFA1
:10549000AB970E9452558FE78093220681E080935C
:1054A00018026A964CAE5DAE6EAE7FAE6A97A3965A
:1054B0004CAE5DAE6EAE7FAEA39766961FAE66979E
:1054C000A7961CAE1DAE1EAE1FAEA79723961FAEAD
:1054D000239790E424969FAF2497ACE12596AFAF35
:1054E0002597B6E42696BFAF269727961FAE279737
:1054F00028961FAE289729961FAE29972A961FAE89
:105500002A9762961CAE1DAE1EAE1FAE62972E96F7
:105510001CAE1DAE1EAE1FAE2E97C12CD12C760137
:105520002FE730E040E050E02AA73BA74CA75DA75B
:105530003FE7832E912CA12CB12C6E961CAE1DAE94
:105540001EAE1FAE6E9731E065963FAF65971FAEFA
:105550001EAE10E0212C312C00E063964FAD639716
:10556000042E000C550B64965FAF4EAF649780918C
:105570001802882309F4F1C00E94EA576EA37FA3A2
:1055800088A799A780911F06882309F4CAC00E94A2
:105590006655109128062090290630902A06009121
:1055A0002B06212F322D432D502F27966FAD279795
:1055B00028967FAD289729968FAD29972A969FAD7B
:1055C0002A970F94A71787FF0CC027961FAF27971E
:1055D00028962FAE289729963FAE29972A960FAF87
:1055E0002A97212F322D432D502F23966FAD2397CD
:1055F00024967FAD249725968FAD259726969FAD4F
:1056000026970F94371E181664F423961FAF23971E
:1056100024962FAE249725963FAE259726960FAF5A
:10562000269765965FAD65972EA53AA94EA9552395
:1056300009F458C05AAD612F722D832D902F0F940D
:10564000371E18160CF06DC08EA19FA1A8A5B9A594
:1056500084199509A609B709E1968CAF9DAFAEAF45
:10566000BFAFE19788589341A109B109B7FD59C06F
:10567000D501C4012AA53BA54CA55DA5821B930BB2
:10568000A40BB50BB595A7959795879580932206A2
:10569000E1968CAD9DADAEADBFADE1976E968CAF92
:1056A0009DAFAEAFBFAF6E979EA527969FAF2797D2
:1056B000AAA92896AFAF2897BEA92996BFAF299768
:1056C000EAAD2A96EFAF2A972EA13FA148A559A58A
:1056D0006A962CAF3DAF4EAF5FAF6A9765961FAE2F
:1056E00065971FC05AAD612F722D832D902F0F9497
:1056F000A71787FF16C08EA19FA1A8A5B9A56A9676
:105700002CAD3DAD4EAD5FAD6A97821B930BA40BE4
:10571000B50BAC01BD01485853416109710977FFD0
:1057200099C420E030E040EA51E46EA57AA98EA940
:105730009AAD0F94111C9B01AC01612F722D832D2A
:10574000902F0F94371E18167CF4EAE6F7E0849148
:105750008F010F5F1F4F811103C00E945255ECC390
:105760000E946036F801F3CF8EA19FA1A8A5B9A52C
:10577000A3962CAD3DAD4EAD5FADA397821B930BB1
:10578000A40BB50BB7FD90C00E949E538AE00E9407
:1057900060368EA19FA1A8A5B9A58053984FAF4FA1
:1057A000BF4FA3968CAF9DAFAEAFBFAFA39766962A
:1057B0009FAD669791115DC0A7962CAD3DAD4EADE6
:1057C0005FADA797612F722D832D902F0F94371EF9
:1057D0001816D4F520E030E040E050E4612F722D3F
:1057E000832D902F0F94111CA7966CAF7DAF8EAFB9
:1057F0009FAFA7972EA13FA148A559A5205E314B89
:105800004F4F5F4FAB962CAF3DAF4EAF5FAFAB97F7
:1058100020E030E040EC50E46EA57AA98EA99AAD64
:105820000F94101C9B01AC0181E066968FAF6697C8
:10583000612F722D832D902F0F94371E1816A4F10F
:1058400066961FAE669730C08EA19FA1A8A5B9A588
:10585000AB962CAD3DAD4EAD5FADAB97821B930BC0
:10586000A40BB50BB7FD20C049E457E06BE577E02A
:1058700018C020E030E040EA51E46EA57AA98EA974
:105880009AAD0F94101C9B01AC01612F722D832DDA
:10589000902F0F94A71787FF07C046E257E069E3F0
:1058A00077E080E00F9454048EA19FA1A8A5B9A52C
:1058B000880F991FAA1FBB1F6A962CAD3DAD4EAD38
:1058C0005FAD6A97821B930BA40BB50B84199509E6
:1058D000A609B70981389F44A241B10568F0E8E004
:1058E000F7E084918F010F5F1F4F882309F435CFB4
:1058F0000E946036F801F5CF4EAD5FAD64968EAD77
:105900009FAD6497841795070CF066C0EBEAF6E04C
:1059100084918F010F5F1F4F882321F00E94603612
:10592000F801F6CFB701A60187E996E00E9465DB92
:105930008AE00E9460362E964CAD5DAD6EAD7FADB7
:105940002E9783E896E00E9465DB8AE00E9460362D
:1059500062964CAD5DAD6EAD7FAD62978FE696E021
:105960000E9465DB8AE00E9460366F969FAD6F975C
:10597000992309F4E1C2C0927E06D0927F06E0929C
:105980008006F09281062CEA35EC47E25EE32E9623
:105990006CAD7DAD8EAD9FAD2E970F940C186093BE
:1059A00086067093870680938806909389062CEA72
:1059B00035EC47E25EE362966CAD7DAD8EAD9FAD9A
:1059C00062970F94ED1C6093820670938306809318
:1059D000840690938506B0C20E9443BEC8CD8491D0
:1059E0008F010F5F1F4F882321F00E946036F8015E
:1059F000F6CFECE1F8E084918F010F5F1F4F882311
:105A000009F49AC20E946036F801F5CF0E94D5CD04
:105A100093C281E00E94019D0E9407FB8DC280E03D
:105A20000E94019D0E94CBF20E9407FB85C283E584
:105A30000E94FC37882349F00E94BA37082F811151
:105A400006C080E00E94AF9902C00091D2148091FC
:105A5000650890916608A0916708B09168088983ED
:105A60009A83AB83BC838091690890916A08A09166
:105A70006B08B0916C088D839E83AF83B88780914B
:105A80006D0890916E08A0916F08B0917008898799
:105A90009A87AB87BC8780917A1490917B14892B6D
:105AA00071F183E40E94FC37811163C428C0930123
:105AB0004AA95EA9682D7D2D8AA59EA50F94111C6B
:105AC00020E030E040E05FE30F940C18A201910168
:105AD0000F94111C4B015C012DEB37E346E855EBAD
